{
  "contractName": "EducationPlatform",
  "abi": [
    {
      "anonymous": false,
      "inputs": [
        {
          "indexed": false,
          "internalType": "string",
          "name": "_courseName",
          "type": "string"
        },
        {
          "indexed": false,
          "internalType": "uint256",
          "name": "cost",
          "type": "uint256"
        },
        {
          "indexed": false,
          "internalType": "uint256",
          "name": "_seatsAvailable",
          "type": "uint256"
        },
        {
          "indexed": false,
          "internalType": "uint256",
          "name": "courseId",
          "type": "uint256"
        }
      ],
      "name": "LogCourseAdded",
      "type": "event"
    },
    {
      "anonymous": false,
      "inputs": [
        {
          "indexed": false,
          "internalType": "string",
          "name": "name",
          "type": "string"
        },
        {
          "indexed": false,
          "internalType": "string",
          "name": "desc",
          "type": "string"
        },
        {
          "indexed": false,
          "internalType": "uint256",
          "name": "universityId",
          "type": "uint256"
        }
      ],
      "name": "LogUniversityAdded",
      "type": "event"
    },
    {
      "anonymous": false,
      "inputs": [
        {
          "indexed": true,
          "internalType": "address",
          "name": "previousOwner",
          "type": "address"
        },
        {
          "indexed": true,
          "internalType": "address",
          "name": "newOwner",
          "type": "address"
        }
      ],
      "name": "OwnershipTransferred",
      "type": "event"
    },
    {
      "constant": true,
      "inputs": [],
      "name": "isOwner",
      "outputs": [
        {
          "internalType": "bool",
          "name": "",
          "type": "bool"
        }
      ],
      "payable": false,
      "stateMutability": "view",
      "type": "function"
    },
    {
      "constant": true,
      "inputs": [],
      "name": "owner",
      "outputs": [
        {
          "internalType": "address",
          "name": "",
          "type": "address"
        }
      ],
      "payable": false,
      "stateMutability": "view",
      "type": "function"
    },
    {
      "constant": false,
      "inputs": [],
      "name": "renounceOwnership",
      "outputs": [],
      "payable": false,
      "stateMutability": "nonpayable",
      "type": "function"
    },
    {
      "constant": false,
      "inputs": [
        {
          "internalType": "address",
          "name": "newOwner",
          "type": "address"
        }
      ],
      "name": "transferOwnership",
      "outputs": [],
      "payable": false,
      "stateMutability": "nonpayable",
      "type": "function"
    },
    {
      "constant": true,
      "inputs": [
        {
          "internalType": "uint256",
          "name": "",
          "type": "uint256"
        }
      ],
      "name": "universities",
      "outputs": [
        {
          "internalType": "string",
          "name": "name",
          "type": "string"
        },
        {
          "internalType": "string",
          "name": "description",
          "type": "string"
        },
        {
          "internalType": "string",
          "name": "website",
          "type": "string"
        },
        {
          "internalType": "string",
          "name": "phoneNumber",
          "type": "string"
        },
        {
          "internalType": "bool",
          "name": "open",
          "type": "bool"
        },
        {
          "internalType": "uint256",
          "name": "courseIdGenerator",
          "type": "uint256"
        },
        {
          "internalType": "address payable",
          "name": "UniversityOwner",
          "type": "address"
        }
      ],
      "payable": false,
      "stateMutability": "view",
      "type": "function"
    },
    {
      "constant": true,
      "inputs": [],
      "name": "universityIdGenerator",
      "outputs": [
        {
          "internalType": "uint256",
          "name": "",
          "type": "uint256"
        }
      ],
      "payable": false,
      "stateMutability": "view",
      "type": "function"
    },
    {
      "constant": false,
      "inputs": [
        {
          "internalType": "string",
          "name": "_name",
          "type": "string"
        },
        {
          "internalType": "string",
          "name": "_description",
          "type": "string"
        },
        {
          "internalType": "string",
          "name": "_website",
          "type": "string"
        },
        {
          "internalType": "string",
          "name": "_phoneNumber",
          "type": "string"
        }
      ],
      "name": "addUniversity",
      "outputs": [],
      "payable": false,
      "stateMutability": "nonpayable",
      "type": "function"
    },
    {
      "constant": false,
      "inputs": [
        {
          "internalType": "uint256",
          "name": "_universityId",
          "type": "uint256"
        },
        {
          "internalType": "string",
          "name": "_courseName",
          "type": "string"
        },
        {
          "internalType": "uint256",
          "name": "_cost",
          "type": "uint256"
        },
        {
          "internalType": "uint256",
          "name": "_seatsAvailable",
          "type": "uint256"
        }
      ],
      "name": "addCourse",
      "outputs": [
        {
          "internalType": "bool",
          "name": "",
          "type": "bool"
        }
      ],
      "payable": false,
      "stateMutability": "nonpayable",
      "type": "function"
    },
    {
      "constant": false,
      "inputs": [
        {
          "internalType": "uint256",
          "name": "_universityId",
          "type": "uint256"
        },
        {
          "internalType": "uint256",
          "name": "_courseId",
          "type": "uint256"
        },
        {
          "internalType": "string",
          "name": "_courseName",
          "type": "string"
        },
        {
          "internalType": "uint256",
          "name": "_cost",
          "type": "uint256"
        },
        {
          "internalType": "uint256",
          "name": "_seatsAvailable",
          "type": "uint256"
        },
        {
          "internalType": "bool",
          "name": "_isActive",
          "type": "bool"
        }
      ],
      "name": "updateCourse",
      "outputs": [
        {
          "internalType": "bool",
          "name": "",
          "type": "bool"
        }
      ],
      "payable": false,
      "stateMutability": "nonpayable",
      "type": "function"
    },
    {
      "constant": true,
      "inputs": [
        {
          "internalType": "uint256",
          "name": "_uniId",
          "type": "uint256"
        }
      ],
      "name": "getUniversity",
      "outputs": [
        {
          "internalType": "string",
          "name": "name",
          "type": "string"
        },
        {
          "internalType": "string",
          "name": "description",
          "type": "string"
        },
        {
          "internalType": "string",
          "name": "website",
          "type": "string"
        },
        {
          "internalType": "string",
          "name": "phone",
          "type": "string"
        }
      ],
      "payable": false,
      "stateMutability": "view",
      "type": "function"
    },
    {
      "constant": false,
      "inputs": [
        {
          "internalType": "address payable",
          "name": "_ownerAddr",
          "type": "address"
        },
        {
          "internalType": "uint256",
          "name": "_universityId",
          "type": "uint256"
        },
        {
          "internalType": "string",
          "name": "_name",
          "type": "string"
        },
        {
          "internalType": "string",
          "name": "_email",
          "type": "string"
        }
      ],
      "name": "addUniversityOwner",
      "outputs": [
        {
          "internalType": "bool",
          "name": "",
          "type": "bool"
        }
      ],
      "payable": false,
      "stateMutability": "nonpayable",
      "type": "function"
    },
    {
      "constant": false,
      "inputs": [
        {
          "internalType": "address",
          "name": "_addr",
          "type": "address"
        },
        {
          "internalType": "string",
          "name": "_name",
          "type": "string"
        },
        {
          "internalType": "string",
          "name": "_email",
          "type": "string"
        }
      ],
      "name": "addStudent",
      "outputs": [
        {
          "internalType": "bool",
          "name": "",
          "type": "bool"
        }
      ],
      "payable": false,
      "stateMutability": "nonpayable",
      "type": "function"
    },
    {
      "constant": false,
      "inputs": [
        {
          "internalType": "uint256",
          "name": "_uniId",
          "type": "uint256"
        },
        {
          "internalType": "uint256",
          "name": "_courseId",
          "type": "uint256"
        },
        {
          "internalType": "uint256",
          "name": "_quantity",
          "type": "uint256"
        }
      ],
      "name": "buyCourse",
      "outputs": [],
      "payable": true,
      "stateMutability": "payable",
      "type": "function"
    }
  ],
  "bytecode": "0x60806040526100126100d260201b60201c565b6000806101000a81548173ffffffffffffffffffffffffffffffffffffffff021916908373ffffffffffffffffffffffffffffffffffffffff1602179055506000809054906101000a900473ffffffffffffffffffffffffffffffffffffffff1673ffffffffffffffffffffffffffffffffffffffff16600073ffffffffffffffffffffffffffffffffffffffff167f8be0079c531659141344cd1fd0a4f28419497f9722a3daafe3b4186f6b6457e060405160405180910390a36100da565b600033905090565b6129ac806100e96000396000f3fe6080604052600436106100c25760003560e01c80638f32d59b1161007f578063b28064d811610059578063b28064d81461085a578063c99086d014610ae7578063f178019414610cdf578063f2fde38b14610ddd576100c2565b80638f32d59b1461044d578063903ba9f41461047c5780639c38f65f1461061d576100c2565b806321a829c6146100c757806326ff98721461025e578063715018a6146102895780637b195fef146102a05780637cd52821146103b45780638da5cb5b146103f6575b600080fd5b3480156100d357600080fd5b50610244600480360360608110156100ea57600080fd5b81019080803573ffffffffffffffffffffffffffffffffffffffff1690602001909291908035906020019064010000000081111561012757600080fd5b82018360208201111561013957600080fd5b8035906020019184600183028401116401000000008311171561015b57600080fd5b91908080601f016020809104026020016040519081016040528093929190818152602001838380828437600081840152601f19601f820116905080830192505050505050509192919290803590602001906401000000008111156101be57600080fd5b8201836020820111156101d057600080fd5b803590602001918460018302840111640100000000831117156101f257600080fd5b91908080601f016020809104026020016040519081016040528093929190818152602001838380828437600081840152601f19601f820116905080830192505050505050509192919290505050610e2e565b604051808215151515815260200191505060405180910390f35b34801561026a57600080fd5b50610273610fc7565b6040518082815260200191505060405180910390f35b34801561029557600080fd5b5061029e610fcd565b005b3480156102ac57600080fd5b5061039a600480360360c08110156102c357600080fd5b810190808035906020019092919080359060200190929190803590602001906401000000008111156102f457600080fd5b82018360208201111561030657600080fd5b8035906020019184600183028401116401000000008311171561032857600080fd5b91908080601f016020809104026020016040519081016040528093929190818152602001838380828437600081840152601f19601f8201169050808301925050505050505091929192908035906020019092919080359060200190929190803515159060200190929190505050611106565b604051808215151515815260200191505060405180910390f35b6103f4600480360360608110156103ca57600080fd5b810190808035906020019092919080359060200190929190803590602001909291905050506112f7565b005b34801561040257600080fd5b5061040b611538565b604051808273ffffffffffffffffffffffffffffffffffffffff1673ffffffffffffffffffffffffffffffffffffffff16815260200191505060405180910390f35b34801561045957600080fd5b50610462611561565b604051808215151515815260200191505060405180910390f35b34801561048857600080fd5b506106036004803603608081101561049f57600080fd5b81019080803573ffffffffffffffffffffffffffffffffffffffff16906020019092919080359060200190929190803590602001906401000000008111156104e657600080fd5b8201836020820111156104f857600080fd5b8035906020019184600183028401116401000000008311171561051a57600080fd5b91908080601f016020809104026020016040519081016040528093929190818152602001838380828437600081840152601f19601f8201169050808301925050505050505091929192908035906020019064010000000081111561057d57600080fd5b82018360208201111561058f57600080fd5b803590602001918460018302840111640100000000831117156105b157600080fd5b91908080601f016020809104026020016040519081016040528093929190818152602001838380828437600081840152601f19601f8201169050808301925050505050505091929192905050506115bf565b604051808215151515815260200191505060405180910390f35b34801561062957600080fd5b506106566004803603602081101561064057600080fd5b8101908080359060200190929190505050611857565b6040518080602001806020018060200180602001881515151581526020018781526020018673ffffffffffffffffffffffffffffffffffffffff1673ffffffffffffffffffffffffffffffffffffffff16815260200185810385528c818151815260200191508051906020019080838360005b838110156106e45780820151818401526020810190506106c9565b50505050905090810190601f1680156107115780820380516001836020036101000a031916815260200191505b5085810384528b818151815260200191508051906020019080838360005b8381101561074a57808201518184015260208101905061072f565b50505050905090810190601f1680156107775780820380516001836020036101000a031916815260200191505b5085810383528a818151815260200191508051906020019080838360005b838110156107b0578082015181840152602081019050610795565b50505050905090810190601f1680156107dd5780820380516001836020036101000a031916815260200191505b50858103825289818151815260200191508051906020019080838360005b838110156108165780820151818401526020810190506107fb565b50505050905090810190601f1680156108435780820380516001836020036101000a031916815260200191505b509b50505050505050505050505060405180910390f35b34801561086657600080fd5b50610ae56004803603608081101561087d57600080fd5b810190808035906020019064010000000081111561089a57600080fd5b8201836020820111156108ac57600080fd5b803590602001918460018302840111640100000000831117156108ce57600080fd5b91908080601f016020809104026020016040519081016040528093929190818152602001838380828437600081840152601f19601f8201169050808301925050505050505091929192908035906020019064010000000081111561093157600080fd5b82018360208201111561094357600080fd5b8035906020019184600183028401116401000000008311171561096557600080fd5b91908080601f016020809104026020016040519081016040528093929190818152602001838380828437600081840152601f19601f820116905080830192505050505050509192919290803590602001906401000000008111156109c857600080fd5b8201836020820111156109da57600080fd5b803590602001918460018302840111640100000000831117156109fc57600080fd5b91908080601f016020809104026020016040519081016040528093929190818152602001838380828437600081840152601f19601f82011690508083019250505050505050919291929080359060200190640100000000811115610a5f57600080fd5b820183602082011115610a7157600080fd5b80359060200191846001830284011164010000000083111715610a9357600080fd5b91908080601f016020809104026020016040519081016040528093929190818152602001838380828437600081840152601f19601f820116905080830192505050505050509192919290505050611b26565b005b348015610af357600080fd5b50610b2060048036036020811015610b0a57600080fd5b8101908080359060200190929190505050611e06565b6040518080602001806020018060200180602001858103855289818151815260200191508051906020019080838360005b83811015610b6c578082015181840152602081019050610b51565b50505050905090810190601f168015610b995780820380516001836020036101000a031916815260200191505b50858103845288818151815260200191508051906020019080838360005b83811015610bd2578082015181840152602081019050610bb7565b50505050905090810190601f168015610bff5780820380516001836020036101000a031916815260200191505b50858103835287818151815260200191508051906020019080838360005b83811015610c38578082015181840152602081019050610c1d565b50505050905090810190601f168015610c655780820380516001836020036101000a031916815260200191505b50858103825286818151815260200191508051906020019080838360005b83811015610c9e578082015181840152602081019050610c83565b50505050905090810190601f168015610ccb5780820380516001836020036101000a031916815260200191505b509850505050505050505060405180910390f35b348015610ceb57600080fd5b50610dc360048036036080811015610d0257600080fd5b810190808035906020019092919080359060200190640100000000811115610d2957600080fd5b820183602082011115610d3b57600080fd5b80359060200191846001830284011164010000000083111715610d5d57600080fd5b91908080601f016020809104026020016040519081016040528093929190818152602001838380828437600081840152601f19601f82011690508083019250505050505050919291929080359060200190929190803590602001909291905050506120e3565b604051808215151515815260200191505060405180910390f35b348015610de957600080fd5b50610e2c60048036036020811015610e0057600080fd5b81019080803573ffffffffffffffffffffffffffffffffffffffff1690602001909291905050506123d3565b005b600083600073ffffffffffffffffffffffffffffffffffffffff168173ffffffffffffffffffffffffffffffffffffffff161415610eb7576040517f08c379a00000000000000000000000000000000000000000000000000000000081526004018080602001828103825260228152602001806128b46022913960400191505060405180910390fd5b610ebf61275e565b848160000181905250838160200181905250600554816040018181525050610ef186600361245990919063ffffffff16565b600081606001901515908115158152505080600760008873ffffffffffffffffffffffffffffffffffffffff1673ffffffffffffffffffffffffffffffffffffffff1681526020019081526020016000206000820151816000019080519060200190610f5e929190612788565b506020820151816001019080519060200190610f7b929190612788565b506040820151816002015560608201518160030160006101000a81548160ff02191690831515021790555090505060016005600082825401925050819055506001925050509392505050565b60045481565b610fd5611561565b611047576040517f08c379a00000000000000000000000000000000000000000000000000000000081526004018080602001828103825260208152602001807f4f776e61626c653a2063616c6c6572206973206e6f7420746865206f776e657281525060200191505060405180910390fd5b600073ffffffffffffffffffffffffffffffffffffffff166000809054906101000a900473ffffffffffffffffffffffffffffffffffffffff1673ffffffffffffffffffffffffffffffffffffffff167f8be0079c531659141344cd1fd0a4f28419497f9722a3daafe3b4186f6b6457e060405160405180910390a360008060006101000a81548173ffffffffffffffffffffffffffffffffffffffff021916908373ffffffffffffffffffffffffffffffffffffffff160217905550565b6000863373ffffffffffffffffffffffffffffffffffffffff166006600083815260200190815260200160002060060160009054906101000a900473ffffffffffffffffffffffffffffffffffffffff1673ffffffffffffffffffffffffffffffffffffffff16146111c3576040517f08c379a00000000000000000000000000000000000000000000000000000000081526004018080602001828103825260378152602001806129416037913960400191505060405180910390fd5b6111d733600161253490919063ffffffff16565b61122c576040517f08c379a00000000000000000000000000000000000000000000000000000000081526004018080602001828103825260238152602001806128fc6023913960400191505060405180910390fd5b611234612808565b86816000018190525084816080018181525050858160200181815250508381604001901515908115158152505080600660008b815260200190815260200160002060070160008a815260200190815260200160002060008201518160000190805190602001906112a5929190612788565b506020820151816001015560408201518160020160006101000a81548160ff02191690831515021790555060608201518160030155608082015181600401559050506001925050509695505050505050565b3361130c81600361253490919063ffffffff16565b61137e576040517f08c379a000000000000000000000000000000000000000000000000000000000815260040180806020018281038252601a8152602001807f444f4553204e4f5420484156452053545544454e5420524f4c4500000000000081525060200191505060405180910390fd5b8383836000600660008581526020019081526020016000206007016000848152602001908152602001600020600101549050818102341015611428576040517f08c379a00000000000000000000000000000000000000000000000000000000081526004018080602001828103825260148152602001807f4e4f5420454e4f5547482046454553205041494400000000000000000000000081525060200191505060405180910390fd5b87878733600660008d815260200190815260200160002060060160009054906101000a900473ffffffffffffffffffffffffffffffffffffffff1673ffffffffffffffffffffffffffffffffffffffff166108fc349081150290604051600060405180830381858888f193505050501580156114a8573d6000803e3d6000fd5b5060008260066000878152602001908152602001600020600701600086815260200190815260200160002060010154029050600081340390508273ffffffffffffffffffffffffffffffffffffffff166108fc829081150290604051600060405180830381858888f19350505050158015611527573d6000803e3d6000fd5b505050505050505050505050505050565b60008060009054906101000a900473ffffffffffffffffffffffffffffffffffffffff16905090565b60008060009054906101000a900473ffffffffffffffffffffffffffffffffffffffff1673ffffffffffffffffffffffffffffffffffffffff166115a3612612565b73ffffffffffffffffffffffffffffffffffffffff1614905090565b60006115c9611561565b61163b576040517f08c379a00000000000000000000000000000000000000000000000000000000081526004018080602001828103825260208152602001807f4f776e61626c653a2063616c6c6572206973206e6f7420746865206f776e657281525060200191505060405180910390fd5b84600073ffffffffffffffffffffffffffffffffffffffff168173ffffffffffffffffffffffffffffffffffffffff1614156116c2576040517f08c379a00000000000000000000000000000000000000000000000000000000081526004018080602001828103825260228152602001806128b46022913960400191505060405180910390fd5b6116ca61275e565b848160000181905250838160200181905250600554816040018181525050600181606001901515908115158152505061170d87600161245990919063ffffffff16565b80600760008973ffffffffffffffffffffffffffffffffffffffff1673ffffffffffffffffffffffffffffffffffffffff1681526020019081526020016000206000820151816000019080519060200190611769929190612788565b506020820151816001019080519060200190611786929190612788565b506040820151816002015560608201518160030160006101000a81548160ff0219169083151502179055509050506001600560008282540192505081905550866006600088815260200190815260200160002060060160006101000a81548173ffffffffffffffffffffffffffffffffffffffff021916908373ffffffffffffffffffffffffffffffffffffffff16021790555060016006600088815260200190815260200160002060040160006101000a81548160ff021916908315150217905550600192505050949350505050565b6006602052806000526040600020600091509050806000018054600181600116156101000203166002900480601f0160208091040260200160405190810160405280929190818152602001828054600181600116156101000203166002900480156119035780601f106118d857610100808354040283529160200191611903565b820191906000526020600020905b8154815290600101906020018083116118e657829003601f168201915b505050505090806001018054600181600116156101000203166002900480601f0160208091040260200160405190810160405280929190818152602001828054600181600116156101000203166002900480156119a15780601f10611976576101008083540402835291602001916119a1565b820191906000526020600020905b81548152906001019060200180831161198457829003601f168201915b505050505090806002018054600181600116156101000203166002900480601f016020809104026020016040519081016040528092919081815260200182805460018160011615610100020316600290048015611a3f5780601f10611a1457610100808354040283529160200191611a3f565b820191906000526020600020905b815481529060010190602001808311611a2257829003601f168201915b505050505090806003018054600181600116156101000203166002900480601f016020809104026020016040519081016040528092919081815260200182805460018160011615610100020316600290048015611add5780601f10611ab257610100808354040283529160200191611add565b820191906000526020600020905b815481529060010190602001808311611ac057829003601f168201915b5050505050908060040160009054906101000a900460ff16908060050154908060060160009054906101000a900473ffffffffffffffffffffffffffffffffffffffff16905087565b611b2e611561565b611ba0576040517f08c379a00000000000000000000000000000000000000000000000000000000081526004018080602001828103825260208152602001807f4f776e61626c653a2063616c6c6572206973206e6f7420746865206f776e657281525060200191505060405180910390fd5b611ba8612839565b8481600001819052508381602001819052508281604001819052508181606001819052506000816080019015159081151581525050806006600060045481526020019081526020016000206000820151816000019080519060200190611c0f929190612788565b506020820151816001019080519060200190611c2c929190612788565b506040820151816002019080519060200190611c49929190612788565b506060820151816003019080519060200190611c66929190612788565b5060808201518160040160006101000a81548160ff02191690831515021790555060a0820151816005015560c08201518160060160006101000a81548173ffffffffffffffffffffffffffffffffffffffff021916908373ffffffffffffffffffffffffffffffffffffffff16021790555090505060016004600082825401925050819055507f17bd20564888962589be0906f760255071a0c85d66584f4e1f6489591c14f83c8585600454604051808060200180602001848152602001838103835286818151815260200191508051906020019080838360005b83811015611d5c578082015181840152602081019050611d41565b50505050905090810190601f168015611d895780820380516001836020036101000a031916815260200191505b50838103825285818151815260200191508051906020019080838360005b83811015611dc2578082015181840152602081019050611da7565b50505050905090810190601f168015611def5780820380516001836020036101000a031916815260200191505b509550505050505060405180910390a15050505050565b606080606080600660008681526020019081526020016000206000018054600181600116156101000203166002900480601f016020809104026020016040519081016040528092919081815260200182805460018160011615610100020316600290048015611eb65780601f10611e8b57610100808354040283529160200191611eb6565b820191906000526020600020905b815481529060010190602001808311611e9957829003601f168201915b50505050509350600660008681526020019081526020016000206002018054600181600116156101000203166002900480601f016020809104026020016040519081016040528092919081815260200182805460018160011615610100020316600290048015611f675780601f10611f3c57610100808354040283529160200191611f67565b820191906000526020600020905b815481529060010190602001808311611f4a57829003601f168201915b50505050509150600660008681526020019081526020016000206001018054600181600116156101000203166002900480601f0160208091040260200160405190810160405280929190818152602001828054600181600116156101000203166002900480156120185780601f10611fed57610100808354040283529160200191612018565b820191906000526020600020905b815481529060010190602001808311611ffb57829003601f168201915b50505050509250600660008681526020019081526020016000206003018054600181600116156101000203166002900480601f0160208091040260200160405190810160405280929190818152602001828054600181600116156101000203166002900480156120c95780601f1061209e576101008083540402835291602001916120c9565b820191906000526020600020905b8154815290600101906020018083116120ac57829003601f168201915b505050505090508383838393509350935093509193509193565b6000843373ffffffffffffffffffffffffffffffffffffffff166006600083815260200190815260200160002060060160009054906101000a900473ffffffffffffffffffffffffffffffffffffffff1673ffffffffffffffffffffffffffffffffffffffff16146121a0576040517f08c379a00000000000000000000000000000000000000000000000000000000081526004018080602001828103825260378152602001806129416037913960400191505060405180910390fd5b6121b433600161253490919063ffffffff16565b612209576040517f08c379a00000000000000000000000000000000000000000000000000000000081526004018080602001828103825260238152602001806128fc6023913960400191505060405180910390fd5b612211612808565b85816000018190525083816080018181525050848160200181815250506001816040019015159081151581525050600081606001818152505060006006600089815260200190815260200160002060050154905081600660008a8152602001908152602001600020600701600083815260200190815260200160002060008201518160000190805190602001906122a9929190612788565b506020820151816001015560408201518160020160006101000a81548160ff02191690831515021790555060608201518160030155608082015181600401559050506001600660008a8152602001908152602001600020600501600082825401925050819055507f89f4edc142d57c1d29965512cac1cbfe9541efa20ff153a28760f1b5829acf0d878787846040518080602001858152602001848152602001838152602001828103825286818151815260200191508051906020019080838360005b8381101561238757808201518184015260208101905061236c565b50505050905090810190601f1680156123b45780820380516001836020036101000a031916815260200191505b509550505050505060405180910390a160019350505050949350505050565b6123db611561565b61244d576040517f08c379a00000000000000000000000000000000000000000000000000000000081526004018080602001828103825260208152602001807f4f776e61626c653a2063616c6c6572206973206e6f7420746865206f776e657281525060200191505060405180910390fd5b6124568161261a565b50565b6124638282612534565b156124d6576040517f08c379a000000000000000000000000000000000000000000000000000000000815260040180806020018281038252601f8152602001807f526f6c65733a206163636f756e7420616c72656164792068617320726f6c650081525060200191505060405180910390fd5b60018260000160008373ffffffffffffffffffffffffffffffffffffffff1673ffffffffffffffffffffffffffffffffffffffff16815260200190815260200160002060006101000a81548160ff0219169083151502179055505050565b60008073ffffffffffffffffffffffffffffffffffffffff168273ffffffffffffffffffffffffffffffffffffffff1614156125bb576040517f08c379a000000000000000000000000000000000000000000000000000000000815260040180806020018281038252602281526020018061291f6022913960400191505060405180910390fd5b8260000160008373ffffffffffffffffffffffffffffffffffffffff1673ffffffffffffffffffffffffffffffffffffffff16815260200190815260200160002060009054906101000a900460ff16905092915050565b600033905090565b600073ffffffffffffffffffffffffffffffffffffffff168173ffffffffffffffffffffffffffffffffffffffff1614156126a0576040517f08c379a00000000000000000000000000000000000000000000000000000000081526004018080602001828103825260268152602001806128d66026913960400191505060405180910390fd5b8073ffffffffffffffffffffffffffffffffffffffff166000809054906101000a900473ffffffffffffffffffffffffffffffffffffffff1673ffffffffffffffffffffffffffffffffffffffff167f8be0079c531659141344cd1fd0a4f28419497f9722a3daafe3b4186f6b6457e060405160405180910390a3806000806101000a81548173ffffffffffffffffffffffffffffffffffffffff021916908373ffffffffffffffffffffffffffffffffffffffff16021790555050565b60405180608001604052806060815260200160608152602001600081526020016000151581525090565b828054600181600116156101000203166002900490600052602060002090601f016020900481019282601f106127c957805160ff19168380011785556127f7565b828001600101855582156127f7579182015b828111156127f65782518255916020019190600101906127db565b5b509050612804919061288e565b5090565b6040518060a00160405280606081526020016000815260200160001515815260200160008152602001600081525090565b6040518060e001604052806060815260200160608152602001606081526020016060815260200160001515815260200160008152602001600073ffffffffffffffffffffffffffffffffffffffff1681525090565b6128b091905b808211156128ac576000816000905550600101612894565b5090565b9056fe414444524553532043414e4e4f5420424520544845205a45524f20414444524553534f776e61626c653a206e6577206f776e657220697320746865207a65726f2061646472657373444f4553204e4f54204841564520554e4956455253495459204f574e455220524f4c45526f6c65733a206163636f756e7420697320746865207a65726f2061646472657373444f4553204e4f542042454c4f4e4720544f2054484520554e4956455253495459204f574e455253204f5220495320494e414354495645a265627a7a723158200ab287e0328fe2f27f0dfdefbd9fcf9b2412775380cde28ca7d6f2a75688140464736f6c634300050c0032",
  "source": "pragma solidity ^0.5.0;\r\n\r\nimport \"openzeppelin-solidity/contracts/access/Roles.sol\";\r\nimport \"openzeppelin-solidity/contracts/ownership/Ownable.sol\";\r\n\r\n/*\r\n// To use with Remix:\r\nimport \"github.com/OpenZeppelin/openzeppelin-solidity/contracts/access/Roles.sol\";\r\nimport \"github.com/OpenZeppelin/zeppelin-solidity/contracts/ownership/Ownable.sol\";\r\n*/\r\n\r\ncontract EducationPlatform is Ownable {\r\n\r\n    using Roles for Roles.Role; // We want to use the Roles library\r\n    Roles.Role universityOwners; //Stores University owner Roles\r\n    Roles.Role teachers; // Stores teacher Roles\r\n    Roles.Role students; // Stores student Roles;\r\n\r\n    // ID Generators for universities and platform users\r\n    uint public universityIdGenerator;\r\n    uint UserIdGenerator;\r\n\r\n    mapping (uint => University) public universities; // Mapping to keep track of the Universities\r\n    mapping (address => PlatformMember) platformUsers; // Mapping to keep track of the Students in the platform\r\n\r\n    struct University {\r\n        string name;\r\n        string description;\r\n        string website;\r\n        string phoneNumber;\r\n        bool open;\r\n        uint courseIdGenerator;\r\n        address payable UniversityOwner;\r\n        mapping (uint => Course) courses; //Mappint to track all classes available for this University\r\n    }\r\n\r\n    // This structs is to store the information of a Platform member. Has a flag to identify if the member is Owner or not.\r\n    struct PlatformMember {\r\n        string fullName;\r\n        string email;\r\n        uint id;\r\n        bool isUniversityOwner;\r\n    }\r\n\r\n    struct Course {\r\n        string courseName;\r\n        uint cost;\r\n        bool active;\r\n        uint activeStudents;\r\n        uint seatsAvailable; //to simulate a student buying multiple seats for a course\r\n    }\r\n\r\n\r\n    // Events\r\n    event LogUniversityAdded(string name, string desc, uint universityId);\r\n    event LogCourseAdded(string _courseName, uint cost, uint _seatsAvailable, uint courseId);\r\n\r\n    // Modifiers\r\n    modifier validAddress(address _address) {\r\n        require(_address != address(0), \"ADDRESS CANNOT BE THE ZERO ADDRESS\");\r\n        _;\r\n    }\r\n\r\n    modifier isUniversityOwner(address _addr) {\r\n        require(universityOwners.has(_addr), \"DOES NOT HAVE UNIVERSITY OWNER ROLE\");\r\n        _;\r\n    }\r\n\r\n    modifier isStudent(address _addr) {\r\n        require(students.has(_addr), \"DOES NOT HAVE STUDENT ROLE\");\r\n        _;\r\n    }\r\n\r\n    modifier ownerAtUniversity(uint _universityId) {\r\n        require((universities[_universityId].UniversityOwner == msg.sender), \"DOES NOT BELONG TO THE UNIVERSITY OWNERS OR IS INACTIVE\");\r\n        require(universityOwners.has(msg.sender), \"DOES NOT HAVE UNIVERSITY OWNER ROLE\");\r\n        _;\r\n    }\r\n\r\n    modifier courseIsActive(uint _universityId, uint _courseId) {\r\n        require((universities[_universityId].courses[_courseId].active == true), \"COURSE IS INACTIVE - CONTACT UNIVERSITY OWNER\");\r\n        _;\r\n    }\r\n\r\n    modifier paidEnough(uint _universityId, uint _courseId, uint _quantity)\r\n    {\r\n        uint coursePrice = universities[_universityId].courses[_courseId].cost;\r\n        require(msg.value >= (coursePrice * _quantity), \"NOT ENOUGH FEES PAID\");\r\n        _;\r\n    }\r\n\r\n    modifier checkValue(uint _universityId, uint _courseId, uint _quantity, address payable _addr)  {\r\n    //refund them after pay for item\r\n        _;\r\n        uint coursePrice = universities[_universityId].courses[_courseId].cost * _quantity;\r\n        uint total2RefundAfterPay = msg.value - coursePrice;\r\n        _addr.transfer(total2RefundAfterPay);\r\n    }\r\n\r\n\r\n    // Add Universities\r\n    function addUniversity(string memory _name, string memory _description, string memory _website, string memory _phoneNumber)\r\n    public onlyOwner\r\n    {\r\n        University memory newUniversity;\r\n        newUniversity.name = _name;\r\n        newUniversity.description = _description;\r\n        newUniversity.website = _website;\r\n        newUniversity.phoneNumber = _phoneNumber;\r\n        newUniversity.open = false;\r\n        universities[universityIdGenerator] = newUniversity;\r\n        universityIdGenerator += 1;\r\n\r\n        emit LogUniversityAdded(_name, _description, universityIdGenerator);\r\n    }\r\n\r\n    // Add a Course\r\n    function addCourse(uint _universityId, string memory _courseName, uint _cost, uint _seatsAvailable) public\r\n    ownerAtUniversity(_universityId)\r\n    returns (bool)\r\n    {\r\n        Course memory newCourse;\r\n        newCourse.courseName = _courseName;\r\n        newCourse.seatsAvailable = _seatsAvailable;\r\n        newCourse.cost = _cost;\r\n        newCourse.active = true;\r\n        newCourse.activeStudents = 0;\r\n\r\n        uint courseId = universities[_universityId].courseIdGenerator;\r\n        universities[_universityId].courses[courseId] = newCourse;\r\n        universities[_universityId].courseIdGenerator += 1;\r\n\r\n        emit LogCourseAdded(_courseName, _cost, _seatsAvailable, courseId);\r\n        return true;\r\n    }\r\n\r\n\r\n    // Modify a Course\r\n    function updateCourse(uint _universityId, uint _courseId, string memory _courseName, uint _cost, uint _seatsAvailable, bool _isActive)\r\n    public\r\n    ownerAtUniversity(_universityId)\r\n    returns (bool)\r\n    {\r\n        Course memory newCourse;\r\n        newCourse.courseName = _courseName;\r\n        newCourse.seatsAvailable = _seatsAvailable;\r\n        newCourse.cost = _cost;\r\n        newCourse.active = _isActive;\r\n        universities[_universityId].courses[_courseId] = newCourse;\r\n        return true;\r\n    }\r\n\r\n\r\n    // Get University details\r\n    function getUniversity(uint _uniId)\r\n    public view\r\n    returns (string memory name, string memory description, string memory website, string memory phone)\r\n    {\r\n        name = universities[_uniId].name;\r\n        website = universities[_uniId].website;\r\n        description = universities[_uniId].description;\r\n        phone = universities[_uniId].phoneNumber;\r\n        return (name, description, website, phone);\r\n    }\r\n\r\n    /*\r\n    Roles and membership\r\n    */\r\n\r\n    function addUniversityOwner(address payable _ownerAddr, uint _universityId, string memory _name, string memory _email)\r\n    public onlyOwner\r\n    validAddress(_ownerAddr)\r\n    returns (bool)\r\n    {\r\n        PlatformMember memory newPlatformMember;\r\n        newPlatformMember.fullName = _name;\r\n        newPlatformMember.email = _email;\r\n        newPlatformMember.id = UserIdGenerator;\r\n        newPlatformMember.isUniversityOwner = true;\r\n        universityOwners.add(_ownerAddr);\r\n\r\n        platformUsers[_ownerAddr] = newPlatformMember;\r\n        UserIdGenerator += 1;\r\n\r\n        universities[_universityId].UniversityOwner = _ownerAddr;\r\n        universities[_universityId].open = true;\r\n\r\n        return true;\r\n    }\r\n\r\n\r\n    // Registers a new user into the Platform - Owner or Student\r\n    function addStudent(address _addr, string memory _name, string memory _email) public\r\n    validAddress(_addr)\r\n    returns (bool)\r\n    {\r\n        PlatformMember memory newPlatformMember;\r\n        newPlatformMember.fullName = _name;\r\n        newPlatformMember.email = _email;\r\n        newPlatformMember.id = UserIdGenerator;\r\n        students.add(_addr);\r\n        newPlatformMember.isUniversityOwner = false;\r\n\r\n        platformUsers[_addr] = newPlatformMember;\r\n        UserIdGenerator += 1;\r\n        return true;\r\n    }\r\n\r\n\r\n    /*\r\n    Students specific functions\r\n    - Buy/Pay course\r\n    */\r\n\r\n    function buyCourse(uint _uniId, uint _courseId, uint _quantity)\r\n    public\r\n    payable\r\n    isStudent(msg.sender)\r\n    paidEnough(_uniId, _courseId, _quantity)\r\n    checkValue(_uniId, _courseId, _quantity, msg.sender)\r\n    {\r\n        universities[_uniId].UniversityOwner.transfer(msg.value);\r\n    }\r\n\r\n}",
  "sourcePath": "G:/Personal/ConsenSys/FinalProject/Test5/contracts/EducationPlatform.sol",
  "compiler": {
    "name": "solc",
    "version": "0.5.12+commit.7709ece9.Emscripten.clang"
  },
  "schemaVersion": "3.0.19",
  "updatedAt": "2019-11-26T05:04:09.518Z",
  "devdoc": {
    "methods": {
      "isOwner()": {
        "details": "Returns true if the caller is the current owner."
      },
      "owner()": {
        "details": "Returns the address of the current owner."
      },
      "renounceOwnership()": {
        "details": "Leaves the contract without owner. It will not be possible to call `onlyOwner` functions anymore. Can only be called by the current owner.     * NOTE: Renouncing ownership will leave the contract without an owner, thereby removing any functionality that is only available to the owner."
      },
      "transferOwnership(address)": {
        "details": "Transfers ownership of the contract to a new account (`newOwner`). Can only be called by the current owner."
      }
    }
  },
  "userdoc": {
    "methods": {}
  }
}